:100000000C9462000C948A000C948A000C948A0070
:100010000C948A000C948A000C948A000C948A0038
:100020000C948A000C948A000C948A000C948A0028
:100030000C948A000C948A000C948A000C948A0018
:100040000C94C9020C948A000C9439030C94130389
:100050000C948A000C948A000C948A000C948A00F8
:100060000C948A000C948A000000000023002600F3
:10007000290000000000240027002A0000000000E2
:10008000250028002B0004040404040404040202D4
:100090000202020203030303030301020408102007
:1000A0004080010204081020010204081020000012
:1000B0000008000201000003040700000000000027
:1000C00000007D0411241FBECFEFD8E0DEBFCDBFFE
:1000D00011E0A0E0B1E0E8EAF9E002C005900D927D
:1000E000A631B107D9F721E0A6E1B1E001C01D9228
:1000F000AC3BB207E1F710E0C2E6D0E004C02197C4
:10010000FE010E94CC04C136D107C9F70E946B03DF
:100110000C94D2040C940000833081F028F48130D8
:1001200099F08230A9F008958730A9F08830C9F09D
:100130008430B1F4809180008F7D03C08091800075
:100140008F7780938000089584B58F7784BD08955C
:1001500084B58F7DFBCF8091B0008F778093B00006
:1001600008958091B0008F7DF9CF1F93CF93DF93D7
:10017000282F30E0F901E255FF4F8491F901E6564E
:10018000FF4FD491F901EA57FF4FC491CC23A9F056
:10019000162F81110E948C00EC2FF0E0EE0FFF1F54
:1001A000E458FF4FA591B4918FB7F894EC911111D9
:1001B00008C0D095DE23DC938FBFDF91CF911F91D4
:1001C0000895DE2BF8CFCF93DF9390E0FC01E65645
:1001D000FF4F24918A579F4FFC0184918823D1F0CF
:1001E00090E0880F991FFC01EE58FF4FA591B49144
:1001F000FC01E458FF4FC591D49161110EC09FB727
:10020000F8948C91E22FE0958E238C932881E22341
:10021000E8839FBFDF91CF9108958FB7F894EC9159
:10022000E22BEC938FBFF6CF3FB7F89480911B0180
:1002300090911C01A0911D01B0911E0126B5A89BB3
:1002400005C02F3F19F00196A11DB11D3FBFBA2F68
:10025000A92F982F8827BC01CD01620F711D811D28
:10026000911D42E0660F771F881F991F4A95D1F7AD
:1002700008958F929F92AF92BF92CF92DF92EF92AA
:10028000FF924B015C010E9414016B017C010E94F2
:1002900014016C197D098E099F09683E7340810520
:1002A0009105A8F321E0821A9108A108B10888EE0F
:1002B000C80E83E0D81EE11CF11C81149104A10436
:1002C000B10429F7FF90EF90DF90CF90BF90AF90EF
:1002D0009F908F900895AF92BF92CF92DF92EF924E
:1002E000FF920F931F93CF93DF936C017B018B01E0
:1002F000040F151FEB015E01AE18BF08C017D10730
:1003000059F06991D601ED91FC910190F081E02DB9
:10031000C6010995892B79F7C501DF91CF911F910E
:100320000F91FF90EF90DF90CF90BF90AF90089526
:10033000FC01538D448D252F30E0842F90E0821BEB
:10034000930B541710F0CF96089501970895FC0170
:10035000918D828D981761F0A28DAE0FBF2FB11DC8
:100360005D968C91928D9F5F9F73928F90E0089520
:100370008FEF9FEF0895FC01918D828D981731F0DA
:10038000828DE80FF11D858D90E008958FEF9FEF2E
:100390000895FC01918D228D892F90E0805C9F4F04
:1003A000821B91098F73992708958FE191E00E9434
:1003B000C90121E0892B09F420E0822F089580E013
:1003C00090E0892B29F00E94D50181110C94000046
:1003D0000895FC01A48DA80FB92FB11DA35ABF4FDA
:1003E0002C91848D90E001968F739927848FA68934
:1003F000B7892C93A089B1898C91837080648C9388
:10040000938D848D981306C00288F389E02D808136
:100410008F7D80830895EF92FF920F931F93CF9368
:10042000DF93EC0181E0888F9B8D8C8D98131AC02F
:10043000E889F989808185FF15C09FB7F894EE8916
:10044000FF896083E889F989808183708064808373
:100450009FBF81E090E0DF91CF911F910F91FF90BE
:10046000EF900895F62E0B8D10E00F5F1F4F0F7366
:100470001127E02E8C8D8E110CC00FB607FCFACF21
:10048000E889F989808185FFF5CFCE010E94E901D5
:10049000F1CFEB8DEC0FFD2FF11DE35AFF4FF082F2
:1004A0009FB7F8940B8FEA89FB8980818062CFCF58
:1004B000CF93DF93EC01888D8823B9F0AA89BB899B
:1004C000E889F9898C9185FD03C0808186FD0DC086
:1004D0000FB607FCF7CF8C9185FFF2CF808185FFA7
:1004E000EDCFCE010E94E901E9CFDF91CF910895D0
:1004F000FC0101900020E9F73197AF01481B590B2F
:10050000BC018FE191E00C946B018F929F92AF92AE
:10051000BF920F931F93CF93DF93CDB7DEB7A19711
:100520000FB6F894DEBF0FBECDBF19A2423008F45B
:100530004AE08E010F5D1F4F842E912CB12CA12C0F
:10054000A50194010E94AA04E62FB901CA01EA306C
:10055000F4F4E05DD801EE938D01232B242B252BA1
:1005600079F790E080E0109719F0CD010E947802B1
:10057000A1960FB6F894DEBF0FBECDBFDF91CF912D
:100580001F910F91BF90AF909F908F900895E95C5D
:10059000E1CF1F920F920FB60F9211242F933F932A
:1005A0008F939F93AF93BF93809117019091180100
:1005B000A0911901B0911A013091160123E0230F87
:1005C0002D3758F50196A11DB11D2093160180937A
:1005D000170190931801A0931901B0931A0180910B
:1005E0001B0190911C01A0911D01B0911E0101966B
:1005F000A11DB11D80931B0190931C01A0931D01AF
:10060000B0931E01BF91AF919F918F913F912F9118
:100610000F900FBE0F901F90189526E8230F02969B
:10062000A11DB11DD2CF1F920F920FB60F921124B0
:100630002F933F934F935F936F937F938F939F93EA
:10064000AF93BF93EF93FF938FE191E00E94E90195
:10065000FF91EF91BF91AF919F918F917F916F919A
:100660005F914F913F912F910F900FBE0F901F9070
:1006700018951F920F920FB60F9211242F938F93FC
:100680009F93EF93FF93E0912F01F09130018081D0
:10069000E0913501F091360182FD1BC0908180917F
:1006A00038018F5F8F7320913901821741F0E091FB
:1006B0003801F0E0E15EFE4F958F80933801FF91A5
:1006C000EF919F918F912F910F900FBE0F901F90E0
:1006D00018958081F4CF789484B5826084BD84B508
:1006E000816084BD85B5826085BD85B5816085BD2D
:1006F00080916E00816080936E00109281008091E5
:10070000810082608093810080918100816080936C
:100710008100809180008160809380008091B10091
:1007200084608093B1008091B00081608093B000BC
:1007300080917A00846080937A0080917A00826050
:1007400080937A0080917A00816080937A00809112
:100750007A00806880937A001092C10061E085E0A1
:100760000E94E30060E086E00E94E30060E084E035
:100770000E94B50061E084E00E94E30061E087E050
:100780000E94B50061E087E00E94E300E0912F0144
:10079000F091300182E08083E0912B01F0912C01F7
:1007A0001082E0912D01F0912E018FEC8083109248
:1007B0003701E0913301F091340186E08083E091CC
:1007C0003101F0913201808180618083E0913101BB
:1007D000F0913201808188608083E0913101F09155
:1007E0003201808180688083E0913101F091320193
:1007F00080818F7D808361E070E080E090E00E94E6
:1008000039010FE510E024EBE22E20E0F22E30EA71
:10081000C32E30E0D32E4CE8A42E40E0B42E50E09E
:10082000852E50E0952E60E087E00E94B500C8E07C
:10083000D0E0712C90E8692E862D817661E009F474
:1008400060E085E00E94B500C8010197F1F761E022
:1008500084E00E94B500F7018491F6015490F501FF
:100860004490442079F081110E948C00E42DF0E046
:10087000EE0FFF1FE859FF4FA591B4918C915822BC
:1008800009F07628C8010197F1F760E084E00E9442
:10089000B5006694219709F0CFCF60E084E00E9414
:1008A000B50061E087E00E94B500672D70E090E040
:1008B00080E04AE00E94850282E191E00E94780295
:1008C0004AE061E070E080E090E00E94850282E111
:1008D00091E00E94780268EE73E080E090E00E9470
:1008E00039018114910409F49ECF0E94D501882317
:1008F00009F499CF0E94000096CFEFE1F1E0138256
:10090000128288EE93E0A0E0B0E084839583A68312
:10091000B78384E091E09183808385EC90E09587B4
:10092000848784EC90E09787868780EC90E0918BB9
:10093000808B81EC90E0938B828B82EC90E0958BA6
:10094000848B86EC90E0978B868B118E128E138EA3
:10095000148E0895A1E21A2EAA1BBB1BFD010DC027
:10096000AA1FBB1FEE1FFF1FA217B307E407F5075F
:1009700020F0A21BB30BE40BF50B661F771F881F3B
:10098000991F1A9469F760957095809590959B01D1
:10099000AC01BD01CF010895EE0FFF1F0590F4914A
:0809A000E02D0994F894FFCF4B
:1009A800000000000B026B0198015802C901A70161
:0609B800BB010D0A000066
:00000001FF
